{
  "_format": "hh3-artifact-1",
  "contractName": "FileStorage",
  "sourceName": "contracts/FileStorage.sol",
  "abi": [
    {
      "anonymous": false,
      "inputs": [
        {
          "indexed": false,
          "internalType": "uint256",
          "name": "fileId",
          "type": "uint256"
        },
        {
          "indexed": false,
          "internalType": "string",
          "name": "fileHash",
          "type": "string"
        },
        {
          "indexed": false,
          "internalType": "string",
          "name": "fileSignature",
          "type": "string"
        },
        {
          "indexed": false,
          "internalType": "uint256",
          "name": "blockId",
          "type": "uint256"
        }
      ],
      "name": "FileStored",
      "type": "event"
    },
    {
      "inputs": [],
      "name": "fileHash",
      "outputs": [
        {
          "internalType": "string",
          "name": "",
          "type": "string"
        }
      ],
      "stateMutability": "view",
      "type": "function"
    },
    {
      "inputs": [],
      "name": "fileId",
      "outputs": [
        {
          "internalType": "uint256",
          "name": "",
          "type": "uint256"
        }
      ],
      "stateMutability": "view",
      "type": "function"
    },
    {
      "inputs": [],
      "name": "fileSignature",
      "outputs": [
        {
          "internalType": "string",
          "name": "",
          "type": "string"
        }
      ],
      "stateMutability": "view",
      "type": "function"
    },
    {
      "inputs": [],
      "name": "getFile",
      "outputs": [
        {
          "internalType": "uint256",
          "name": "",
          "type": "uint256"
        },
        {
          "internalType": "string",
          "name": "",
          "type": "string"
        },
        {
          "internalType": "string",
          "name": "",
          "type": "string"
        }
      ],
      "stateMutability": "view",
      "type": "function"
    },
    {
      "inputs": [
        {
          "internalType": "uint256",
          "name": "_fileId",
          "type": "uint256"
        },
        {
          "internalType": "string",
          "name": "_fileHash",
          "type": "string"
        },
        {
          "internalType": "string",
          "name": "_fileSignature",
          "type": "string"
        }
      ],
      "name": "storeFile",
      "outputs": [],
      "stateMutability": "nonpayable",
      "type": "function"
    }
  ],
  "bytecode": "0x608060405234801561001057600080fd5b50610a3e806100206000396000f3fe608060405234801561001057600080fd5b50600436106100575760003560e01c806305d8a6571461005c57806324c8c6981461007a5780632fa8169214610098578063641b66e4146100b8578063bf8287b8146100d6575b600080fd5b6100646100f2565b604051610071919061043c565b60405180910390f35b610082610180565b60405161008f919061043c565b60405180910390f35b6100a061020e565b6040516100af93929190610477565b60405180910390f35b6100c061033d565b6040516100cd91906104bc565b60405180910390f35b6100f060048036038101906100eb919061064c565b610343565b005b600280546100ff90610706565b80601f016020809104026020016040519081016040528092919081815260200182805461012b90610706565b80156101785780601f1061014d57610100808354040283529160200191610178565b820191906000526020600020905b81548152906001019060200180831161015b57829003601f168201915b505050505081565b6001805461018d90610706565b80601f01602080910402602001604051908101604052809291908181526020018280546101b990610706565b80156102065780601f106101db57610100808354040283529160200191610206565b820191906000526020600020905b8154815290600101906020018083116101e957829003601f168201915b505050505081565b60006060806000546001600281805461022690610706565b80601f016020809104026020016040519081016040528092919081815260200182805461025290610706565b801561029f5780601f106102745761010080835404028352916020019161029f565b820191906000526020600020905b81548152906001019060200180831161028257829003601f168201915b505050505091508080546102b290610706565b80601f01602080910402602001604051908101604052809291908181526020018280546102de90610706565b801561032b5780601f106103005761010080835404028352916020019161032b565b820191906000526020600020905b81548152906001019060200180831161030e57829003601f168201915b50505050509050925092509250909192565b60005481565b82600081905550816001908161035991906108e3565b50806002908161036991906108e3565b507fe10a5948597ee68ffca315c855428c9f04b5cae83090421853e657982251b0328383834360405161039f94939291906109b5565b60405180910390a1505050565b600081519050919050565b600082825260208201905092915050565b60005b838110156103e65780820151818401526020810190506103cb565b60008484015250505050565b6000601f19601f8301169050919050565b600061040e826103ac565b61041881856103b7565b93506104288185602086016103c8565b610431816103f2565b840191505092915050565b600060208201905081810360008301526104568184610403565b905092915050565b6000819050919050565b6104718161045e565b82525050565b600060608201905061048c6000830186610468565b818103602083015261049e8185610403565b905081810360408301526104b28184610403565b9050949350505050565b60006020820190506104d16000830184610468565b92915050565b6000604051905090565b600080fd5b600080fd5b6104f48161045e565b81146104ff57600080fd5b50565b600081359050610511816104eb565b92915050565b600080fd5b600080fd5b7f4e487b7100000000000000000000000000000000000000000000000000000000600052604160045260246000fd5b610559826103f2565b810181811067ffffffffffffffff8211171561057857610577610521565b5b80604052505050565b600061058b6104d7565b90506105978282610550565b919050565b600067ffffffffffffffff8211156105b7576105b6610521565b5b6105c0826103f2565b9050602081019050919050565b82818337600083830152505050565b60006105ef6105ea8461059c565b610581565b90508281526020810184848401111561060b5761060a61051c565b5b6106168482856105cd565b509392505050565b600082601f83011261063357610632610517565b5b81356106438482602086016105dc565b91505092915050565b600080600060608486031215610665576106646104e1565b5b600061067386828701610502565b935050602084013567ffffffffffffffff811115610694576106936104e6565b5b6106a08682870161061e565b925050604084013567ffffffffffffffff8111156106c1576106c06104e6565b5b6106cd8682870161061e565b9150509250925092565b7f4e487b7100000000000000000000000000000000000000000000000000000000600052602260045260246000fd5b6000600282049050600182168061071e57607f821691505b602082108103610731576107306106d7565b5b50919050565b60008190508160005260206000209050919050565b60006020601f8301049050919050565b600082821b905092915050565b6000600883026107997fffffffffffffffffffffffffffffffffffffffffffffffffffffffffffffffff8261075c565b6107a3868361075c565b95508019841693508086168417925050509392505050565b6000819050919050565b60006107e06107db6107d68461045e565b6107bb565b61045e565b9050919050565b6000819050919050565b6107fa836107c5565b61080e610806826107e7565b848454610769565b825550505050565b600090565b610823610816565b61082e8184846107f1565b505050565b5b818110156108525761084760008261081b565b600181019050610834565b5050565b601f8211156108975761086881610737565b6108718461074c565b81016020851015610880578190505b61089461088c8561074c565b830182610833565b50505b505050565b600082821c905092915050565b60006108ba6000198460080261089c565b1980831691505092915050565b60006108d383836108a9565b9150826002028217905092915050565b6108ec826103ac565b67ffffffffffffffff81111561090557610904610521565b5b61090f8254610706565b61091a828285610856565b600060209050601f83116001811461094d576000841561093b578287015190505b61094585826108c7565b8655506109ad565b601f19841661095b86610737565b60005b828110156109835784890151825560018201915060208501945060208101905061095e565b868310156109a0578489015161099c601f8916826108a9565b8355505b6001600288020188555050505b505050505050565b60006080820190506109ca6000830187610468565b81810360208301526109dc8186610403565b905081810360408301526109f08185610403565b90506109ff6060830184610468565b9594505050505056fea2646970667358221220d0fe20b67a6d32304066415acb6e559c10a5e430652285ab0e553f4c08d3187c64736f6c63430008110033",
  "linkReferences": {},
  "deployedLinkReferences": {},
  "immutableReferences": {},
  "inputSourceName": "project/contracts/FileStorage.sol",
  "buildInfoId": "solc-0_8_17-9aca00a5a6415de6b07cd795f21634b9b3156619"
}