{
  "_format": "hh3-artifact-1",
  "contractName": "FileStorage",
  "sourceName": "contracts/FileStorage.sol",
  "abi": [
    {
      "anonymous": false,
      "inputs": [
        {
          "indexed": false,
          "internalType": "uint256",
          "name": "fileId",
          "type": "uint256"
        },
        {
          "indexed": false,
          "internalType": "string",
          "name": "fileHash",
          "type": "string"
        },
        {
          "indexed": false,
          "internalType": "uint256",
          "name": "blockId",
          "type": "uint256"
        }
      ],
      "name": "FileStored",
      "type": "event"
    },
    {
      "inputs": [],
      "name": "fileHash",
      "outputs": [
        {
          "internalType": "string",
          "name": "",
          "type": "string"
        }
      ],
      "stateMutability": "view",
      "type": "function"
    },
    {
      "inputs": [],
      "name": "fileId",
      "outputs": [
        {
          "internalType": "uint256",
          "name": "",
          "type": "uint256"
        }
      ],
      "stateMutability": "view",
      "type": "function"
    },
    {
      "inputs": [],
      "name": "getFile",
      "outputs": [
        {
          "internalType": "uint256",
          "name": "",
          "type": "uint256"
        },
        {
          "internalType": "string",
          "name": "",
          "type": "string"
        }
      ],
      "stateMutability": "view",
      "type": "function"
    },
    {
      "inputs": [
        {
          "internalType": "uint256",
          "name": "_fileId",
          "type": "uint256"
        },
        {
          "internalType": "string",
          "name": "_fileHash",
          "type": "string"
        }
      ],
      "name": "storeFile",
      "outputs": [],
      "stateMutability": "nonpayable",
      "type": "function"
    }
  ],
  "bytecode": "0x608060405234801561001057600080fd5b50610888806100206000396000f3fe608060405234801561001057600080fd5b506004361061004c5760003560e01c8063201ac29c1461005157806324c8c6981461006d5780632fa816921461008b578063641b66e4146100aa575b600080fd5b61006b600480360381019061006691906103df565b6100c8565b005b61007561011e565b60405161008291906104ba565b60405180910390f35b6100936101ac565b6040516100a19291906104eb565b60405180910390f35b6100b2610249565b6040516100bf919061051b565b60405180910390f35b8160008190555080600190816100de9190610742565b507f304f9031ef657c381207e298266fe9384402cb341f5f8f9e5d8ab1bc57e44de382824360405161011293929190610814565b60405180910390a15050565b6001805461012b90610565565b80601f016020809104026020016040519081016040528092919081815260200182805461015790610565565b80156101a45780601f10610179576101008083540402835291602001916101a4565b820191906000526020600020905b81548152906001019060200180831161018757829003601f168201915b505050505081565b6000606060005460018080546101c190610565565b80601f01602080910402602001604051908101604052809291908181526020018280546101ed90610565565b801561023a5780601f1061020f5761010080835404028352916020019161023a565b820191906000526020600020905b81548152906001019060200180831161021d57829003601f168201915b50505050509050915091509091565b60005481565b6000604051905090565b600080fd5b600080fd5b6000819050919050565b61027681610263565b811461028157600080fd5b50565b6000813590506102938161026d565b92915050565b600080fd5b600080fd5b6000601f19601f8301169050919050565b7f4e487b7100000000000000000000000000000000000000000000000000000000600052604160045260246000fd5b6102ec826102a3565b810181811067ffffffffffffffff8211171561030b5761030a6102b4565b5b80604052505050565b600061031e61024f565b905061032a82826102e3565b919050565b600067ffffffffffffffff82111561034a576103496102b4565b5b610353826102a3565b9050602081019050919050565b82818337600083830152505050565b600061038261037d8461032f565b610314565b90508281526020810184848401111561039e5761039d61029e565b5b6103a9848285610360565b509392505050565b600082601f8301126103c6576103c5610299565b5b81356103d684826020860161036f565b91505092915050565b600080604083850312156103f6576103f5610259565b5b600061040485828601610284565b925050602083013567ffffffffffffffff8111156104255761042461025e565b5b610431858286016103b1565b9150509250929050565b600081519050919050565b600082825260208201905092915050565b60005b8381101561047557808201518184015260208101905061045a565b60008484015250505050565b600061048c8261043b565b6104968185610446565b93506104a6818560208601610457565b6104af816102a3565b840191505092915050565b600060208201905081810360008301526104d48184610481565b905092915050565b6104e581610263565b82525050565b600060408201905061050060008301856104dc565b81810360208301526105128184610481565b90509392505050565b600060208201905061053060008301846104dc565b92915050565b7f4e487b7100000000000000000000000000000000000000000000000000000000600052602260045260246000fd5b6000600282049050600182168061057d57607f821691505b6020821081036105905761058f610536565b5b50919050565b60008190508160005260206000209050919050565b60006020601f8301049050919050565b600082821b905092915050565b6000600883026105f87fffffffffffffffffffffffffffffffffffffffffffffffffffffffffffffffff826105bb565b61060286836105bb565b95508019841693508086168417925050509392505050565b6000819050919050565b600061063f61063a61063584610263565b61061a565b610263565b9050919050565b6000819050919050565b61065983610624565b61066d61066582610646565b8484546105c8565b825550505050565b600090565b610682610675565b61068d818484610650565b505050565b5b818110156106b1576106a660008261067a565b600181019050610693565b5050565b601f8211156106f6576106c781610596565b6106d0846105ab565b810160208510156106df578190505b6106f36106eb856105ab565b830182610692565b50505b505050565b600082821c905092915050565b6000610719600019846008026106fb565b1980831691505092915050565b60006107328383610708565b9150826002028217905092915050565b61074b8261043b565b67ffffffffffffffff811115610764576107636102b4565b5b61076e8254610565565b6107798282856106b5565b600060209050601f8311600181146107ac576000841561079a578287015190505b6107a48582610726565b86555061080c565b601f1984166107ba86610596565b60005b828110156107e2578489015182556001820191506020850194506020810190506107bd565b868310156107ff57848901516107fb601f891682610708565b8355505b6001600288020188555050505b505050505050565b600060608201905061082960008301866104dc565b818103602083015261083b8185610481565b905061084a60408301846104dc565b94935050505056fea26469706673582212203f0dae2e23b17404b665908228fc88505c7f3de95c54a20367fcbb30733bccdd64736f6c63430008110033",
  "linkReferences": {},
  "deployedLinkReferences": {},
  "immutableReferences": {},
  "inputSourceName": "project/contracts/FileStorage.sol",
  "buildInfoId": "solc-0_8_17-67c20e06a1cfdd366de20ef526ce644ffdfac839"
}